{
  "_format": "hh-sol-artifact-1",
  "contractName": "RegistrationContract",
  "sourceName": "contracts/RegistrationContract.sol",
  "abi": [
    {
      "inputs": [
        {
          "internalType": "uint256",
          "name": "_tuition",
          "type": "uint256"
        }
      ],
      "stateMutability": "nonpayable",
      "type": "constructor"
    },
    {
      "inputs": [
        {
          "internalType": "address",
          "name": "",
          "type": "address"
        }
      ],
      "name": "isRegistered",
      "outputs": [
        {
          "internalType": "bool",
          "name": "",
          "type": "bool"
        }
      ],
      "stateMutability": "view",
      "type": "function"
    },
    {
      "inputs": [],
      "name": "principal",
      "outputs": [
        {
          "internalType": "address",
          "name": "",
          "type": "address"
        }
      ],
      "stateMutability": "view",
      "type": "function"
    },
    {
      "inputs": [],
      "name": "registration",
      "outputs": [
        {
          "internalType": "bool",
          "name": "",
          "type": "bool"
        }
      ],
      "stateMutability": "view",
      "type": "function"
    },
    {
      "inputs": [],
      "name": "tuition",
      "outputs": [
        {
          "internalType": "uint256",
          "name": "",
          "type": "uint256"
        }
      ],
      "stateMutability": "view",
      "type": "function"
    },
    {
      "inputs": [],
      "name": "tuitionPayment",
      "outputs": [],
      "stateMutability": "payable",
      "type": "function"
    }
  ],
  "bytecode": "0x6080604052348015600f57600080fd5b506040516105123803806105128339818101604052810190602f919060b1565b336000806101000a81548173ffffffffffffffffffffffffffffffffffffffff021916908373ffffffffffffffffffffffffffffffffffffffff160217905550806001819055505060d9565b600080fd5b6000819050919050565b6091816080565b8114609b57600080fd5b50565b60008151905060ab81608a565b92915050565b60006020828403121560c45760c3607b565b5b600060d084828501609e565b91505092915050565b61042a806100e86000396000f3fe60806040526004361061004a5760003560e01c8063443bd1d01461004f57806354067e021461007a578063a8a86c1014610084578063ba5d3078146100af578063c3c5a547146100da575b600080fd5b34801561005b57600080fd5b50610064610117565b604051610071919061026e565b60405180910390f35b61008261016b565b005b34801561009057600080fd5b50610099610209565b6040516100a691906102a2565b60405180910390f35b3480156100bb57600080fd5b506100c461020f565b6040516100d191906102fe565b60405180910390f35b3480156100e657600080fd5b5061010160048036038101906100fc919061034a565b610233565b60405161010e919061026e565b60405180910390f35b6000600260003373ffffffffffffffffffffffffffffffffffffffff1673ffffffffffffffffffffffffffffffffffffffff16815260200190815260200160002060009054906101000a900460ff16905090565b60015434146101af576040517f08c379a00000000000000000000000000000000000000000000000000000000081526004016101a6906103d4565b60405180910390fd5b6001600260003373ffffffffffffffffffffffffffffffffffffffff1673ffffffffffffffffffffffffffffffffffffffff16815260200190815260200160002060006101000a81548160ff021916908315150217905550565b60015481565b60008054906101000a900473ffffffffffffffffffffffffffffffffffffffff1681565b60026020528060005260406000206000915054906101000a900460ff1681565b60008115159050919050565b61026881610253565b82525050565b6000602082019050610283600083018461025f565b92915050565b6000819050919050565b61029c81610289565b82525050565b60006020820190506102b76000830184610293565b92915050565b600073ffffffffffffffffffffffffffffffffffffffff82169050919050565b60006102e8826102bd565b9050919050565b6102f8816102dd565b82525050565b600060208201905061031360008301846102ef565b92915050565b600080fd5b610327816102dd565b811461033257600080fd5b50565b6000813590506103448161031e565b92915050565b6000602082840312156103605761035f610319565b5b600061036e84828501610335565b91505092915050565b600082825260208201905092915050565b7f496e636f72726563742074756974696f6e20616d6f756e740000000000000000600082015250565b60006103be601883610377565b91506103c982610388565b602082019050919050565b600060208201905081810360008301526103ed816103b1565b905091905056fea264697066735822122025b0b9b7e1dd11feaf2f8fa638a47393f967eeeaf0f95ea19f4b5f777075052f64736f6c634300081c0033",
  "linkReferences": {},
  "deployedLinkReferences": {}
}