{
  "_format": "hh-sol-artifact-1",
  "contractName": "RegistrationContract",
  "sourceName": "contracts/RegistrationContract.sol",
  "abi": [
    {
      "inputs": [
        {
          "internalType": "uint256",
          "name": "_tuition",
          "type": "uint256"
        }
      ],
      "stateMutability": "nonpayable",
      "type": "constructor"
    },
    {
      "inputs": [
        {
          "internalType": "address",
          "name": "",
          "type": "address"
        }
      ],
      "name": "isRegistered",
      "outputs": [
        {
          "internalType": "bool",
          "name": "",
          "type": "bool"
        }
      ],
      "stateMutability": "view",
      "type": "function"
    },
    {
      "inputs": [],
      "name": "principal",
      "outputs": [
        {
          "internalType": "address",
          "name": "",
          "type": "address"
        }
      ],
      "stateMutability": "view",
      "type": "function"
    },
    {
      "inputs": [],
      "name": "registration",
      "outputs": [
        {
          "internalType": "bool",
          "name": "",
          "type": "bool"
        }
      ],
      "stateMutability": "view",
      "type": "function"
    },
    {
      "inputs": [],
      "name": "tuitionFee",
      "outputs": [
        {
          "internalType": "uint256",
          "name": "",
          "type": "uint256"
        }
      ],
      "stateMutability": "view",
      "type": "function"
    },
    {
      "inputs": [],
      "name": "tuitionPayment",
      "outputs": [],
      "stateMutability": "payable",
      "type": "function"
    }
  ],
  "bytecode": "0x6080604052348015600f57600080fd5b506040516104ba3803806104ba8339818101604052810190602f919060b1565b336000806101000a81548173ffffffffffffffffffffffffffffffffffffffff021916908373ffffffffffffffffffffffffffffffffffffffff160217905550806001819055505060d9565b600080fd5b6000819050919050565b6091816080565b8114609b57600080fd5b50565b60008151905060ab81608a565b92915050565b60006020828403121560c45760c3607b565b5b600060d084828501609e565b91505092915050565b6103d2806100e86000396000f3fe60806040526004361061004a5760003560e01c8063443bd1d01461004f57806354067e021461007a5780635c4d042114610084578063ba5d3078146100af578063c3c5a547146100da575b600080fd5b34801561005b57600080fd5b50610064610117565b6040516100719190610216565b60405180910390f35b61008261016b565b005b34801561009057600080fd5b506100996101b1565b6040516100a6919061024a565b60405180910390f35b3480156100bb57600080fd5b506100c46101b7565b6040516100d191906102a6565b60405180910390f35b3480156100e657600080fd5b5061010160048036038101906100fc91906102f2565b6101db565b60405161010e9190610216565b60405180910390f35b6000600260003373ffffffffffffffffffffffffffffffffffffffff1673ffffffffffffffffffffffffffffffffffffffff16815260200190815260200160002060009054906101000a900460ff16905090565b60015434146101af576040517f08c379a00000000000000000000000000000000000000000000000000000000081526004016101a69061037c565b60405180910390fd5b565b60015481565b60008054906101000a900473ffffffffffffffffffffffffffffffffffffffff1681565b60026020528060005260406000206000915054906101000a900460ff1681565b60008115159050919050565b610210816101fb565b82525050565b600060208201905061022b6000830184610207565b92915050565b6000819050919050565b61024481610231565b82525050565b600060208201905061025f600083018461023b565b92915050565b600073ffffffffffffffffffffffffffffffffffffffff82169050919050565b600061029082610265565b9050919050565b6102a081610285565b82525050565b60006020820190506102bb6000830184610297565b92915050565b600080fd5b6102cf81610285565b81146102da57600080fd5b50565b6000813590506102ec816102c6565b92915050565b600060208284031215610308576103076102c1565b5b6000610316848285016102dd565b91505092915050565b600082825260208201905092915050565b7f496e636f72726563742074756974696f6e20616d6f756e740000000000000000600082015250565b600061036660188361031f565b915061037182610330565b602082019050919050565b6000602082019050818103600083015261039581610359565b905091905056fea2646970667358221220613b4a466d3e504b56fd420459cf918502d6da9873aad3465c992251a855accb64736f6c634300081c0033",
  "linkReferences": {},
  "deployedLinkReferences": {}
}