{
  "_format": "hh-sol-artifact-1",
  "contractName": "SkoolLmsContract",
  "sourceName": "contracts/SkoolLmsContract.sol",
  "abi": [
    {
      "inputs": [
        {
          "internalType": "address",
          "name": "_registrationContract",
          "type": "address"
        }
      ],
      "stateMutability": "nonpayable",
      "type": "constructor"
    },
    {
      "inputs": [],
      "name": "CourseNotRegistered",
      "type": "error"
    },
    {
      "inputs": [],
      "name": "NotRegistered",
      "type": "error"
    },
    {
      "inputs": [],
      "name": "UnPaid",
      "type": "error"
    },
    {
      "inputs": [
        {
          "internalType": "uint256",
          "name": "",
          "type": "uint256"
        }
      ],
      "name": "courseMap",
      "outputs": [
        {
          "internalType": "bool",
          "name": "maths",
          "type": "bool"
        },
        {
          "internalType": "bool",
          "name": "english",
          "type": "bool"
        },
        {
          "internalType": "bool",
          "name": "basicScience",
          "type": "bool"
        }
      ],
      "stateMutability": "view",
      "type": "function"
    },
    {
      "inputs": [
        {
          "internalType": "uint256",
          "name": "_id",
          "type": "uint256"
        }
      ],
      "name": "courseRegistration",
      "outputs": [],
      "stateMutability": "nonpayable",
      "type": "function"
    },
    {
      "inputs": [],
      "name": "getAllStudent",
      "outputs": [
        {
          "internalType": "uint256[]",
          "name": "",
          "type": "uint256[]"
        }
      ],
      "stateMutability": "view",
      "type": "function"
    },
    {
      "inputs": [
        {
          "internalType": "uint256",
          "name": "_id",
          "type": "uint256"
        }
      ],
      "name": "getStudentById",
      "outputs": [
        {
          "components": [
            {
              "internalType": "uint256",
              "name": "id",
              "type": "uint256"
            },
            {
              "internalType": "string",
              "name": "name",
              "type": "string"
            },
            {
              "internalType": "address",
              "name": "paymentAddress",
              "type": "address"
            },
            {
              "internalType": "enum SkoolLmsContract.Grade",
              "name": "grade",
              "type": "uint8"
            },
            {
              "internalType": "enum SkoolLmsContract.AdmissionStatus",
              "name": "admissionStatus",
              "type": "uint8"
            },
            {
              "internalType": "enum SkoolLmsContract.PaymentStatus",
              "name": "paymentStatus",
              "type": "uint8"
            }
          ],
          "internalType": "struct SkoolLmsContract.Student",
          "name": "",
          "type": "tuple"
        }
      ],
      "stateMutability": "view",
      "type": "function"
    },
    {
      "inputs": [
        {
          "internalType": "string",
          "name": "_name",
          "type": "string"
        }
      ],
      "name": "payTuition",
      "outputs": [],
      "stateMutability": "payable",
      "type": "function"
    },
    {
      "inputs": [
        {
          "internalType": "uint256",
          "name": "_id",
          "type": "uint256"
        }
      ],
      "name": "registerStudent",
      "outputs": [],
      "stateMutability": "nonpayable",
      "type": "function"
    },
    {
      "inputs": [],
      "name": "registrationContract",
      "outputs": [
        {
          "internalType": "contract IRegistration",
          "name": "",
          "type": "address"
        }
      ],
      "stateMutability": "view",
      "type": "function"
    },
    {
      "inputs": [],
      "name": "studentCount",
      "outputs": [
        {
          "internalType": "uint256",
          "name": "",
          "type": "uint256"
        }
      ],
      "stateMutability": "view",
      "type": "function"
    },
    {
      "inputs": [],
      "name": "tuition",
      "outputs": [
        {
          "internalType": "uint256",
          "name": "",
          "type": "uint256"
        }
      ],
      "stateMutability": "view",
      "type": "function"
    }
  ],
  "bytecode": "0x608060405234801561001057600080fd5b5060405161196f38038061196f833981810160405281019061003291906100dc565b80600260006101000a81548173ffffffffffffffffffffffffffffffffffffffff021916908373ffffffffffffffffffffffffffffffffffffffff16021790555050610109565b600080fd5b600073ffffffffffffffffffffffffffffffffffffffff82169050919050565b60006100a98261007e565b9050919050565b6100b98161009e565b81146100c457600080fd5b50565b6000815190506100d6816100b0565b92915050565b6000602082840312156100f2576100f1610079565b5b6000610100848285016100c7565b91505092915050565b611857806101186000396000f3fe6080604052600436106100865760003560e01c806340bb28301161005957806340bb2830146101495780635ce91edb14610165578063a8a86c101461018e578063c8fb0793146101b9578063e581f9ee146101f657610086565b8063133d04601461008b57806313543119146100b65780631e522c3e146100f557806323c3286c14610120575b600080fd5b34801561009757600080fd5b506100a0610221565b6040516100ad9190610da2565b60405180910390f35b3480156100c257600080fd5b506100dd60048036038101906100d89190610e04565b610279565b6040516100ec93929190610e4c565b60405180910390f35b34801561010157600080fd5b5061010a6102ca565b6040516101179190610f02565b60405180910390f35b34801561012c57600080fd5b5061014760048036038101906101429190610e04565b6102f0565b005b610163600480360381019061015e9190611063565b610451565b005b34801561017157600080fd5b5061018c60048036038101906101879190610e04565b6107f2565b005b34801561019a57600080fd5b506101a361098e565b6040516101b091906110bb565b60405180910390f35b3480156101c557600080fd5b506101e060048036038101906101db9190610e04565b610994565b6040516101ed9190611306565b60405180910390f35b34801561020257600080fd5b5061020b610bb5565b60405161021891906110bb565b60405180910390f35b6060600480548060200260200160405190810160405280929190818152602001828054801561026f57602002820191906000526020600020905b81548152602001906001019080831161025b575b5050505050905090565b60056020528060005260406000206000915090508060000160009054906101000a900460ff16908060000160019054906101000a900460ff16908060000160029054906101000a900460ff16905083565b600260009054906101000a900473ffffffffffffffffffffffffffffffffffffffff1681565b600660003373ffffffffffffffffffffffffffffffffffffffff1673ffffffffffffffffffffffffffffffffffffffff16815260200190815260200160002060009054906101000a900460ff16610373576040517ff94c176f00000000000000000000000000000000000000000000000000000000815260040160405180910390fd5b60018081111561038657610385611176565b5b6007600083815260200190815260200160002060020160159054906101000a900460ff1660018111156103bc576103bb611176565b5b146103f3576040517faba4733900000000000000000000000000000000000000000000000000000000815260040160405180910390fd5b61040f8160018060016005610bbb90949392919063ffffffff16565b60016007600083815260200190815260200160002060020160146101000a81548160ff0219169083600181111561044957610448611176565b5b021790555050565b600660003373ffffffffffffffffffffffffffffffffffffffff1673ffffffffffffffffffffffffffffffffffffffff16815260200190815260200160002060009054906101000a900460ff16156104de576040517f08c379a00000000000000000000000000000000000000000000000000000000081526004016104d590611385565b60405180910390fd5b600260009054906101000a900473ffffffffffffffffffffffffffffffffffffffff1673ffffffffffffffffffffffffffffffffffffffff166354067e02346040518263ffffffff1660e01b81526004016000604051808303818588803b15801561054857600080fd5b505af115801561055c573d6000803e3d6000fd5b505050505060008054906101000a900473ffffffffffffffffffffffffffffffffffffffff1673ffffffffffffffffffffffffffffffffffffffff166108fc349081150290604051600060405180830381858888f193505050501580156105c7573d6000803e3d6000fd5b506001600660003373ffffffffffffffffffffffffffffffffffffffff1673ffffffffffffffffffffffffffffffffffffffff16815260200190815260200160002060006101000a81548160ff02191690831515021790555060036000815480929190610633906113d4565b91905055506040518060c0016040528060035481526020018281526020013373ffffffffffffffffffffffffffffffffffffffff1681526020016000600181111561068157610680611176565b5b81526020016000600181111561069a57610699611176565b5b81526020016001808111156106b2576106b1611176565b5b8152506007600060035481526020019081526020016000206000820151816000015560208201518160010190816106e9919061161e565b5060408201518160020160006101000a81548173ffffffffffffffffffffffffffffffffffffffff021916908373ffffffffffffffffffffffffffffffffffffffff16021790555060608201518160020160146101000a81548160ff0219169083600181111561075c5761075b611176565b5b021790555060808201518160020160156101000a81548160ff0219169083600181111561078c5761078b611176565b5b021790555060a08201518160020160166101000a81548160ff021916908360018111156107bc576107bb611176565b5b02179055509050506004600354908060018154018082558091505060019003906000526020600020016000909190919091505550565b600660003373ffffffffffffffffffffffffffffffffffffffff1673ffffffffffffffffffffffffffffffffffffffff16815260200190815260200160002060009054906101000a900460ff16610875576040517ff94c176f00000000000000000000000000000000000000000000000000000000815260040160405180910390fd5b60001515600260009054906101000a900473ffffffffffffffffffffffffffffffffffffffff1673ffffffffffffffffffffffffffffffffffffffff1663443bd1d06040518163ffffffff1660e01b8152600401602060405180830381865afa1580156108e6573d6000803e3d6000fd5b505050506040513d601f19601f8201168201806040525081019061090a919061171c565b15151461094c576040517f08c379a000000000000000000000000000000000000000000000000000000000815260040161094390611795565b60405180910390fd5b60016007600083815260200190815260200160002060020160156101000a81548160ff0219169083600181111561098657610985611176565b5b021790555050565b60015481565b61099c610c58565b6000821180156109ae57506003548211155b6109ed576040517f08c379a00000000000000000000000000000000000000000000000000000000081526004016109e490611801565b60405180910390fd5b600760008381526020019081526020016000206040518060c001604052908160008201548152602001600182018054610a259061144b565b80601f0160208091040260200160405190810160405280929190818152602001828054610a519061144b565b8015610a9e5780601f10610a7357610100808354040283529160200191610a9e565b820191906000526020600020905b815481529060010190602001808311610a8157829003601f168201915b505050505081526020016002820160009054906101000a900473ffffffffffffffffffffffffffffffffffffffff1673ffffffffffffffffffffffffffffffffffffffff1673ffffffffffffffffffffffffffffffffffffffff1681526020016002820160149054906101000a900460ff166001811115610b2257610b21611176565b5b6001811115610b3457610b33611176565b5b81526020016002820160159054906101000a900460ff166001811115610b5d57610b5c611176565b5b6001811115610b6f57610b6e611176565b5b81526020016002820160169054906101000a900460ff166001811115610b9857610b97611176565b5b6001811115610baa57610ba9611176565b5b815250509050919050565b60035481565b60405180606001604052808415158152602001831515815260200182151581525085600086815260200190815260200160002060008201518160000160006101000a81548160ff02191690831515021790555060208201518160000160016101000a81548160ff02191690831515021790555060408201518160000160026101000a81548160ff0219169083151502179055509050505050505050565b6040518060c001604052806000815260200160608152602001600073ffffffffffffffffffffffffffffffffffffffff16815260200160006001811115610ca257610ca1611176565b5b815260200160006001811115610cbb57610cba611176565b5b815260200160006001811115610cd457610cd3611176565b5b81525090565b600081519050919050565b600082825260208201905092915050565b6000819050602082019050919050565b6000819050919050565b610d1981610d06565b82525050565b6000610d2b8383610d10565b60208301905092915050565b6000602082019050919050565b6000610d4f82610cda565b610d598185610ce5565b9350610d6483610cf6565b8060005b83811015610d95578151610d7c8882610d1f565b9750610d8783610d37565b925050600181019050610d68565b5085935050505092915050565b60006020820190508181036000830152610dbc8184610d44565b905092915050565b6000604051905090565b600080fd5b600080fd5b610de181610d06565b8114610dec57600080fd5b50565b600081359050610dfe81610dd8565b92915050565b600060208284031215610e1a57610e19610dce565b5b6000610e2884828501610def565b91505092915050565b60008115159050919050565b610e4681610e31565b82525050565b6000606082019050610e616000830186610e3d565b610e6e6020830185610e3d565b610e7b6040830184610e3d565b949350505050565b600073ffffffffffffffffffffffffffffffffffffffff82169050919050565b6000819050919050565b6000610ec8610ec3610ebe84610e83565b610ea3565b610e83565b9050919050565b6000610eda82610ead565b9050919050565b6000610eec82610ecf565b9050919050565b610efc81610ee1565b82525050565b6000602082019050610f176000830184610ef3565b92915050565b600080fd5b600080fd5b6000601f19601f8301169050919050565b7f4e487b7100000000000000000000000000000000000000000000000000000000600052604160045260246000fd5b610f7082610f27565b810181811067ffffffffffffffff82111715610f8f57610f8e610f38565b5b80604052505050565b6000610fa2610dc4565b9050610fae8282610f67565b919050565b600067ffffffffffffffff821115610fce57610fcd610f38565b5b610fd782610f27565b9050602081019050919050565b82818337600083830152505050565b600061100661100184610fb3565b610f98565b90508281526020810184848401111561102257611021610f22565b5b61102d848285610fe4565b509392505050565b600082601f83011261104a57611049610f1d565b5b813561105a848260208601610ff3565b91505092915050565b60006020828403121561107957611078610dce565b5b600082013567ffffffffffffffff81111561109757611096610dd3565b5b6110a384828501611035565b91505092915050565b6110b581610d06565b82525050565b60006020820190506110d060008301846110ac565b92915050565b600081519050919050565b600082825260208201905092915050565b60005b838110156111105780820151818401526020810190506110f5565b60008484015250505050565b6000611127826110d6565b61113181856110e1565b93506111418185602086016110f2565b61114a81610f27565b840191505092915050565b600061116082610e83565b9050919050565b61117081611155565b82525050565b7f4e487b7100000000000000000000000000000000000000000000000000000000600052602160045260246000fd5b600281106111b6576111b5611176565b5b50565b60008190506111c7826111a5565b919050565b60006111d7826111b9565b9050919050565b6111e7816111cc565b82525050565b600281106111fe576111fd611176565b5b50565b600081905061120f826111ed565b919050565b600061121f82611201565b9050919050565b61122f81611214565b82525050565b6002811061124657611245611176565b5b50565b600081905061125782611235565b919050565b600061126782611249565b9050919050565b6112778161125c565b82525050565b600060c0830160008301516112956000860182610d10565b50602083015184820360208601526112ad828261111c565b91505060408301516112c26040860182611167565b5060608301516112d560608601826111de565b5060808301516112e86080860182611226565b5060a08301516112fb60a086018261126e565b508091505092915050565b60006020820190508181036000830152611320818461127d565b905092915050565b600082825260208201905092915050565b7f53747564656e7420416c72656164792050616964000000000000000000000000600082015250565b600061136f601483611328565b915061137a82611339565b602082019050919050565b6000602082019050818103600083015261139e81611362565b9050919050565b7f4e487b7100000000000000000000000000000000000000000000000000000000600052601160045260246000fd5b60006113df82610d06565b91507fffffffffffffffffffffffffffffffffffffffffffffffffffffffffffffffff8203611411576114106113a5565b5b600182019050919050565b7f4e487b7100000000000000000000000000000000000000000000000000000000600052602260045260246000fd5b6000600282049050600182168061146357607f821691505b6020821081036114765761147561141c565b5b50919050565b60008190508160005260206000209050919050565b60006020601f8301049050919050565b600082821b905092915050565b6000600883026114de7fffffffffffffffffffffffffffffffffffffffffffffffffffffffffffffffff826114a1565b6114e886836114a1565b95508019841693508086168417925050509392505050565b600061151b61151661151184610d06565b610ea3565b610d06565b9050919050565b6000819050919050565b61153583611500565b61154961154182611522565b8484546114ae565b825550505050565b600090565b61155e611551565b61156981848461152c565b505050565b5b8181101561158d57611582600082611556565b60018101905061156f565b5050565b601f8211156115d2576115a38161147c565b6115ac84611491565b810160208510156115bb578190505b6115cf6115c785611491565b83018261156e565b50505b505050565b600082821c905092915050565b60006115f5600019846008026115d7565b1980831691505092915050565b600061160e83836115e4565b9150826002028217905092915050565b611627826110d6565b67ffffffffffffffff8111156116405761163f610f38565b5b61164a825461144b565b611655828285611591565b600060209050601f8311600181146116885760008415611676578287015190505b6116808582611602565b8655506116e8565b601f1984166116968661147c565b60005b828110156116be57848901518255600182019150602085019450602081019050611699565b868310156116db57848901516116d7601f8916826115e4565b8355505b6001600288020188555050505b505050505050565b6116f981610e31565b811461170457600080fd5b50565b600081519050611716816116f0565b92915050565b60006020828403121561173257611731610dce565b5b600061174084828501611707565b91505092915050565b7f53747564656e7420416c72656164792072656769737465726564000000000000600082015250565b600061177f601a83611328565b915061178a82611749565b602082019050919050565b600060208201905081810360008301526117ae81611772565b9050919050565b7f496e76616c69642053747564656e742049440000000000000000000000000000600082015250565b60006117eb601283611328565b91506117f6826117b5565b602082019050919050565b6000602082019050818103600083015261181a816117de565b905091905056fea26469706673582212202dedb3dde5068120894fd321db098d1133c0ecf3d406f9779fdf8b81b407309e64736f6c634300081c0033",
  "linkReferences": {},
  "deployedLinkReferences": {}
}